:1000000012C073C092C12AC0ADC128C027C026C08B
:1000100025C01EC223C022C021C060C11FC01EC097
:100020001DC01CC01BC011241FBECFE5D4E0DEBF25
:10003000CDBF10E0A0E6B0E0EEE4F8E002C005902D
:100040000D92AE39B107D9F720E0AEE9B0E001C0BA
:100050001D92A63DB207E1F7F5D2F7C3D1CF90913B
:10006000BC00903118F01092BB000895E091A700F9
:10007000F0E0E755FF4F80838091BC008F5F809355
:10008000BC008091A7008F5F8093A700803111F49E
:100090001092A7000895F8948091BC008823A9F0DD
:1000A000E091A800F0E0E755FF4F80819091BC00FF
:1000B00091509093BC009091A8009F5F9093A800EE
:1000C000903121F41092A80001C080E07894089546
:1000D000982F92959827292F269526952927822FA4
:1000E000869582278095817008951F920F920FB692
:1000F0000F9211242F933F934F935F936F937F93AE
:100100008F939F93AF93BF93CF93DF93EF93FF931F
:100110008091BB00882309F45DC08091BB008230D0
:1001200001F58091A0008230A9F0833069F0813020
:1001300099F08091BD0080FF02C08C9801C08C9A1C
:100140008091BD00869523C08091BF00811102C0BF
:100150008C9A3BC08C9839C0849932C08093BB0084
:1001600031C08091A0008230A9F08B3019F081302D
:1001700021F420C0849B29C01AC08091BD008695BF
:100180008093BD00849B21C08091BD0080688093D6
:10019000BD001BC08091BD009BDF20B390E0229585
:1001A0002170C22F20E0D22F8C179D0771F0109282
:1001B000BB000BC0849B04C08091BD0050DF02C017
:1001C0001092BB008CE08093A0008091A000815031
:1001D0008093A000FF91EF91DF91CF91BF91AF91FC
:1001E0009F918F917F916F915F914F913F912F914F
:1001F0000F900FBE0F901F9018958A988C981092B0
:10020000A7001092A8001092BC0081E08093BB0070
:100210008BE08093A00080E48ABF8BB780648BBFA3
:1002200085B78C7F826085BF089590E49ABF9BB7A5
:100230009F7B9BBF92988A9AE0E9F1E03197F1F7B2
:1002400094988C9A8A981092BC001092A7001092F1
:10025000A80092E09093BB009BE09093A000809355
:10026000BD0036DF8093BF0080E48ABF8BB7806417
:100270008BBF85B78C7F826085BF08958091BC005D
:100280008823E1F308CF0895D0DFF8DF8A3F11F02B
:100290001092BB0008959091A300903109F4FFCF14
:1002A000F8949091A300911102C05D9914C020911F
:1002B000C100E22FF0E0EE53FF4F808381E0820F18
:1002C000803119F08093C10002C01092C1009F5F7D
:1002D0009093A30001C08CB9789408951F920F9257
:1002E0000FB60F9211248F93EF93FF938091A30089
:1002F000882399F081508093A300E091BE00F0E044
:10030000EE53FF4F80818CB98091BE008F5F809348
:10031000BE00803111F41092BE00FF91EF918F91D9
:100320000F900FBE0F901F9018951F920F920FB64F
:100330000F9211248F939F9380B391E083FB8827C2
:1003400080F989278093C0009093A6009F918F9198
:100350000F900FBE0F901F901895959A14BC87E0D0
:1003600085BD08951F920F920FB60F92112415BCF0
:1003700095980F900FBE0F901F9018958FEF84DF08
:100380007DDF8A3A19F47ADF882319F01092BB00D6
:10039000089583EF79DF88EC77DF83EF75DF84E6FC
:1003A00073DF83EF71DF80E56FDF82EF6DDF66DF84
:1003B00091E0811101C090E09093D20088EE64DF5B
:1003C00083E062DF83EF60DF84E15EDF84EF5CCF98
:1003D0000895CF93DF932091BC008091D20090E0EC
:1003E000029630E08217930784F555DE877080937C
:1003F000D500C091D300D091D4004DDEC80FD11DDF
:1004000087FDDA95D093D400C093D300C091A400A7
:10041000D091A50040DEC81BD10987FDD395D093AC
:10042000A500C093A4008091D2008823A1F2C091BE
:10043000B900D091BA002FDEC80FD11D87FDDA9523
:10044000D093BA00C093B900C6CFDF91CF91089581
:100450001F920F920FB60F9211242F938F939F9399
:1004600083B3982F977020919F0021110EC080FDBB
:1004700003C01092600009C081FD02C081E003C08A
:1004800082FD0DC082E080936000973019F482E312
:1004900080939F0080919F00815080939F009F9147
:1004A0008F912F910F900FBE0F901F90189586B3CC
:1004B00082FB882780F991E089278093A2001BB8EE
:1004C00088E48AB98091A200813011F48CE801C0DF
:1004D00084E880BD83E080BD80E489B981E08093B9
:1004E000C0008093A6000895A0E0B0E0E9E7F2E044
:1004F00064C1B82EC62EA42ED22E8091A6008823C9
:1005000031F11092A60080EC9AED0197F1F78091FD
:10051000A200813071F451E6E52E50E0F52EF7018E
:1005200081917F01B8DEFEE9EF16F0E0FF06B9F732
:100530000EC08DE4B0DEE6E7F2E080E991E0DC0198
:100540001197F1F731973097D1F783E3A4DED2FA10
:10055000FF24F0F8EB2DFF27E7FDF095E07CFF2767
:1005600096E0F595E7959A95E1F78E2F8064EC2D4E
:10057000FF27E7FDF095E07CFF2724E0F595E79560
:100580002A95E1F78E2B0D2D017010E035E0000F5C
:10059000111F3A95E1F7802BD1FADD24D0F8CD2D4B
:1005A00090E0D92F44E0CC0FDD1F4A95E1F78C2B6A
:1005B00072DE8B2D8F736FDE8C2D8F736CDE8091CE
:1005C000A200813041F4F29480EFF8228A2D8F70DE
:1005D0008F2961DE0DC0F11004C080919E00882338
:1005E00039F08F2D8295880F807E55DEF0929E0027
:1005F000CDB7DEB7EAE0FDC017BA84E088BB14BA15
:1006000097E095BB22E221BB12BA83BF12BE12BC97
:1006100095BD14BC13BC9BB790689BBF85BF90E889
:100620009ABF19BE89B7816489BF98B910BE2EE000
:1006300088E190E00FB6F894A89581BD0FBE21BD6A
:100640007894089580E090E0E7D08093A100833013
:1006500018F081E08093A100CFDFCFDD8FDE27DFB0
:100660007CDE10E0CFEFB5DE8091A20081111EC0CC
:100670008091D50083708330C9F48091B900909146
:10068000BA0097FF06C08091A100882359F08150DD
:1006900007C0892B59F08091A100823018F48F5F38
:1006A0008093A1001092BA001092B9008091C0000E
:1006B000882309F468C0D091D500D11317C0809168
:1006C000D3009091D400892B89F48091A40090915B
:1006D000A500892B59F48091B9009091BA00892B1B
:1006E00029F48091A600882309F44DC08091A300CD
:1006F000811149C04091D3005091D40040388FEF10
:10070000580734F0842F403851051CF08FE701C0A2
:1007100080E8481B510987FD53955093D4004093BE
:10072000D3004091A4005091A50040389FEF590795
:1007300034F0642F403851051CF06FE701C060E8C9
:10074000461B510967FD53955093A5004093A400A3
:10075000E091B900F091BA00E83F9FEFF90734F05B
:100760004E2FE830F1051CF047E001C048EFE41BD4
:10077000F10947FDF395F093BA00E093B9002D2FEE
:10078000B3DEEBDD1D2F609160006F3F39F06093A9
:10079000A10080E090E048D0C09360008091BB0051
:1007A000882309F460CFA8955ECF2F923F924F9295
:1007B0005F926F927F928F929F92AF92BF92CF92F1
:1007C000DF92EF92FF920F931F93CF93DF93CDB7FA
:1007D000DEB7CA1BDB0B0FB6F894DEBF0FBECDBF72
:1007E00009942A88398848885F846E847D848C8443
:1007F0009B84AA84B984C884DF80EE80FD800C814C
:100800001B81AA81B981CE0FD11D0FB6F894DEBF2E
:100810000FBECDBFED010895E199FECF9FBB8EBB0A
:10082000E09A99278DB30895262FE199FECF9FBBBB
:100830008EBBE09A01970DB2021631F02DBB0FB6B8
:0E084000F894E29AE19A0FBE0895F894FFCF63
:10084E00FF4D5A40000000080124252D23101010E2
:10085E00113C3C2D2F3533253C302E3010261021E7
:10086E003C252D23003323322F2C2C292E27003309
:0E087E00253229212C002D2F35332521150977
:00000001FF
