:1000000012C066C073C12AC08EC128C027C026C0D6
:1000100025C0CEC123C022C021C043C11FC01EC005
:100020001DC01CC01BC011241FBECFE5D4E0DEBF25
:10003000CDBF10E0A0E6B0E0E0EFF7E002C0059031
:100040000D92AE39B107D9F723E0AEE9B0E001C0B7
:100050001D92A63BB207E1F7B1D2C8C3D1CF9091B0
:10006000AD01E091A800F0E0E655FF4F808380915C
:10007000AD018F5F8093AD018091A8008F5F809369
:10008000A8000895F8948091AD01882391F0E09143
:10009000A900F0E0E655FF4F80819091AD019150AD
:1000A0009093AD019091A9009F5F9093A9007894DF
:1000B000089580E0FCCF982F92958927982F9695E8
:1000C00096958927982F9695892780958170089510
:1000D0001F920F920FB60F9211242F933F934F93BD
:1000E0005F936F937F938F939F93AF93BF93EF93A0
:1000F000FF938091AC01882329F18091AC0182307B
:10010000E9F58091A1008230A9F0833079F0813047
:1001100051F18091AE0180FF07C08C988091AE01B3
:1001200086958093AE0109C08C9AF8CF8091B0017A
:10013000882311F08C9801C08C9A8091A100815085
:100140008093A100FF91EF91BF91AF919F918F910B
:100150007F916F915F914F913F912F910F900FBEC3
:100160000F901F901895849B03C01092AC0102C0A1
:100170008093AC018CE08093A100DFCF8091A1003F
:100180008230D1F08B3041F0813059F4849BEDCF37
:100190008091AE0164DFEECF849BCFCF1092AC0193
:1001A000CCCF8091AE0186958093AE01849BC5CF64
:1001B0008091AE018068B5CF8091AE017CDF90B3B5
:1001C000929591709813EACFB8CF8A988C98109234
:1001D000A8001092A9001092AD0181E08093AC01BB
:1001E0008BE08093A10080E48ABF8BB780648BBFD3
:1001F00085B78C7F826085BF0895CF93C0E4CABF66
:100200009BB79F7B9BBF92988A9AE0E9F1E0319778
:10021000F1F794988C9A8A981092AD011092A800E8
:100220001092A90092E09093AC019BE09093A10002
:100230008093AE0140DF8093B001CABF8BB780646A
:100240008BBF85B78C7F826085BFCF9108958091E9
:10025000AD018823E1F316CF0895CFDFF8DF8A3FA1
:1002600011F01092AC0108959091A400F89490912F
:10027000A400911102C05D9912C0E091B201F0E0BA
:10028000ED54FE4F80838091B2018F5F8093B20165
:100290008091A4008F5F8093A400789408958CB916
:1002A000FCCF1F920F920FB60F9211248F93EF93F2
:1002B000FF938091A400882389F0E091AF01F0E0E2
:1002C000ED54FE4F80818CB98091A40081508093C1
:1002D000A4008091AF018F5F8093AF01FF91EF91F8
:1002E0008F910F900FBE0F901F9018951F920F9235
:1002F0000FB60F9211248F939F9380B391E083FBED
:10030000882780F989278093B1019093A7009F9156
:100310008F910F900FBE0F901F901895959A14BC57
:1003200087E085BD08951F920F920FB60F9211249A
:1003300015BC95980F900FBE0F901F9018958FEFDA
:100340008CDF85DF8A3A19F01092AC0108957FDFC7
:100350008111FACF88EE81DF83E07FDF83EF7DDFDD
:1003600088E27BDF84EF79CF8091AD01833008F4A0
:10037000089588DE87708093B50384DE2091B303EF
:100380003091B403280F311D87FD3A953093B403A3
:100390002093B30377DE2091A5003091A600281B9F
:1003A000310987FD33953093A6002093A500DCCF5B
:1003B0001F920F920FB60F9211242F938F939F933A
:1003C00083B3982F97702091A000211104C080FD65
:1003D00014C010926000973019F482E38093A0005B
:1003E0008091A00081508093A0009F918F912F91C8
:1003F0000F900FBE0F901F90189581FD04C081E0F3
:1004000080936000E8CF82FDF0CF82E0F9CF86B321
:1004100082FB882780F991E089278093A3001BB88D
:1004200088E48AB98091A3008130A1F084E880BD7E
:1004300083E080BD80E489B980B391E083FB8827A5
:1004400080F989278093B1018091B1018111909346
:10045000A70008958CE8EBCF8F929F92BF92CF9226
:10046000DF92EF92FF920F931F93CF93DF93C82EEB
:10047000D62EE42EB22E8091A7008823C1F01092D0
:10048000A70080EC9AED0197F1F78091A3008130ED
:1004900009F053C051E6852E50E0952EF40181916C
:1004A0004F01E2DEFEE98F16F0E09F06B9F7B2FADF
:1004B000FF24F0F82C2D0C2C000C330B96E0359516
:1004C00027959A95E1F7237020648D2D82958C7085
:1004D000282B0B2D017010E035E0000F111F3A950D
:1004E000E1F7202BB1FABB24B0F8CB2D80E0D82F58
:1004F000CE0144E0880F991F4A95E1F7822BB4DEC4
:100500008C2D8F73B1DE8D2D8F73AEDE8091A300A5
:10051000813009F5F29480EFF8228E2D8F708F29AB
:10052000A3DEDF91CF911F910F91FF90EF90DF90AD
:10053000CF90BF909F908F9008958DE495DE86E7D1
:1005400092E020E931E0F9013197F1F70197D9F70D
:1005500083E38ADEACCFF11004C080919F00882332
:1005600001F38F2D8295880F807E7EDEF0929F00B2
:10057000D8CF17BA84E088BB14BA97E095BB22E2C3
:1005800021BB12BA83BF12BE12BC95BD14BC13BCF2
:100590009BB790689BBF85BF90E89ABF19BE89B78B
:1005A000816489BF98B910BE9EE088E10FB6F894C7
:1005B000A89581BD0FBE91BD78940895A0E0B0E0EC
:1005C000E3EEF2E0E8C080E090E0F7D08093A20094
:1005D000833018F081E08093A200CBDFF6DDAFDE40
:1005E00016DF9CDEC12CC0E0DCE102E0FF24F394C6
:1005F00083E0E82EDD24DA94B7DE8091B101882310
:1006000009F483C01091B5036091B3037091B403F2
:100610004091A5005091A6002091AA013091AB0114
:10062000C1120DC06115710551F44115510539F420
:100630002115310521F48091A7008823D1F1CB0148
:100640006038710514F08FE790E08038EFEF9E0777
:1006500014F480E89FEF681B790B7093B4036093E8
:10066000B303BA014038510514F06FE770E0603809
:10067000FFEF7F0714F460E87FEF461B570B5093A2
:10068000A6004093A500A9012830310514F047E0E9
:1006900050E0483FEFEF5E0714F448EF5FEF241B94
:1006A000350B3093AB012093AA01212FD5DE36DE26
:1006B000C12E609160006F3F39F06093A20080E02E
:1006C00090E083D0D09260008091A300811116C089
:1006D0008091B5038370833089F48091AA01909151
:1006E000AB0197FF45C08091A200882319F081508B
:1006F0008093A2001092AB011092AA018091AC01EC
:10070000882309F479CFA89577CF5F9BD2CF8CB19E
:100710008C3621F148F48F3371F08236C1F010929B
:100720009E0081E2A1DDC5CF833751F08437B9F750
:10073000F0929E00BECF8DE497DD10929E00B9CF5F
:1007400080919E008130C9F700939E00B2CF8091C6
:100750009E00823091F7E0929E00ABCF80919E0088
:1007600010929E00833009F0A4CFFE010995A1CF1D
:10077000892B21F28091A200823008F0BBCF8F5FDD
:10078000B7CF2F923F924F925F926F927F928F924C
:100790009F92AF92BF92CF92DF92EF92FF920F9310
:1007A0001F93CF93DF93CDB7DEB7CA1BDB0B0FB61A
:1007B000F894DEBF0FBECDBF0994E199FECF9FBB79
:1007C0008EBBE09A99278DB30895262FE199FECF2D
:1007D0009FBB8EBBE09A01970DB2021631F02DBB84
:1007E0000FB6F894E29AE19A0FBE0895F894FFCFFD
:1007F000FF4D5A40000000080124252D2310101041
:10080000113C3C2D2F3533253C302E301026102145
:100810003C252D23003323322F2C2C292E27003367
:0E082000253229212C002D2F353325211509D5
:101C000011248FE594E09EBF8DBF1FBE00C020E071
:101C1000A0E6B0E001C01D92A13AB207E1F724C0EE
:101C200097FF0AC022E02BB9907890BD89B988E16E
:101C30008AB986E880BD08955998F6CF5D9BFECF9E
:101C40008CB908955F9BFECF8CB10895CF93FADFD6
:101C5000C82FF8DF2C2F30E0322F2227A901480FA0
:101C6000511DCA01CF910895A0E0B0E0E9E3FEE084
:101C7000DAC083E390E8D4DFF89418E0C12ED12CC9
:101C800001E1602EE12CF12C89E0782E92E0A92E62
:101C9000B12C23E0822E912CD5DFE82FF0E0CE1678
:101CA000DF06D0F3EB5AF14F099408C00AC02BC0ED
:101CB00042C04DC05DC068C073C0ACC0C3DFBEDFF2
:101CC000EBCF84E5BBDF83E5B9DF82E4B7DF8CE4EB
:101CD000B5DF80E0B3DF81E0B1DF80E0AFDF80E03F
:101CE000ADDF8CE1ABDF80E0A9DF84E0A7DF80E03F
:101CF000A5DF80E0A3DF80E4A1DF87E09FDF83E949
:101D00009DDF8EE1DCCFA2DF1C01412C512C9EDF38
:101D1000D4E0220C331C441C551CDA95D1F78C01FD
:101D2000280E391EF101E01BF10B849187DF015071
:101D30001109C1F7B1CF8ADFEC0188DF8C01CE0138
:101D40008ED07CDF219601501109C9F7A5CFF7018C
:101D5000709257008491F50170925700D491F4016C
:101D600070925700C4916ADF8D2F68DF8C2FA7CF48
:101D700080916000882329F060925700E8951092C6
:101D80006000F701099588CF61DFC6E0880F991FD1
:101D9000CA95E1F723E0FC0120935700E8957CCF3A
:101DA00055DFB6E0880F991FBA95E1F707B600FC3A
:101DB000FDCF20916000222329F060925700E89522
:101DC0001092600040E050E0A1E6B0E0CC91BD018F
:101DD0006E5F7F4FFC01E40FF51F11962C9130E0F0
:101DE000322F22272C0F311DA1E00901A0935700AB
:101DF000E89511244E5F5F4FDB014034510531F708
:101E000025E0FC0120935700E89581E08093600075
:101E100080E355CFC1E6D0E015DF8993A0E0C13A59
:101E2000DA07D1F739CF2F923F924F925F926F929C
:101E30007F928F929F92AF92BF92CF92DF92EF925A
:101E4000FF920F931F93CF93DF93CDB7DEB7CA1BDB
:101E5000DB0B0FB6F894DEBF0FBECDBF0994E1993E
:0E1E6000FECF9FBB8EBBE09A99278DB30895ED
:00000001FF
