:1000000012C066C07EC12AC099C128C027C026C0C0
:1000100025C0DAC123C022C021C04EC11FC01EC0EE
:100020001DC01CC01BC011241FBECFE5D4E0DEBF25
:10003000CDBF10E0A0E6B0E0EEEBF7E002C0059027
:100040000D92AE39B107D9F723E0AEE9B0E001C0B7
:100050001D92A53BB207E1F7B8D2AFC3D1CF9091C3
:10006000AC01E091A700F0E0E755FF4F808380915D
:10007000AC018F5F8093AC018091A7008F5F80936C
:10008000A7000895F8948091AC01882389F0E0914D
:10009000A800F0E0E755FF4F80819091AC019150AE
:1000A0009093AC019091A8009F5F9093A80001C02D
:1000B00080E078940895982F92958927982F9695A7
:1000C00096958927982F9695892780958170089510
:1000D0001F920F920FB60F9211242F933F934F93BD
:1000E0005F936F937F938F939F93AF93BF93CF93C0
:1000F000DF93EF93FF938091AB01882309F45DC0F8
:100100008091AB01823001F58091A0008230A9F08E
:10011000833069F0813099F08091AD0180FF02C099
:100120008C9801C08C9A8091AD01869523C08091F6
:10013000AF01811102C08C9A3BC08C9839C0849960
:1001400032C08093AB0131C08091A0008230A9F011
:100150008B3019F0813021F420C0849B29C01AC053
:100160008091AD0186958093AD01849B21C08091E3
:10017000AD0180688093AD011BC08091AD019BDF14
:1001800020B390E022952170C22F20E0D22F8C174F
:100190009D0771F01092AB010BC0849B04C080914D
:1001A000AD015DDF02C01092AB018CE08093A00036
:1001B0008091A00081508093A000FF91EF91DF918A
:1001C000CF91BF91AF919F918F917F916F915F91EF
:1001D0004F913F912F910F900FBE0F901F90189548
:1001E0008A988C981092A7001092A8001092AC01E7
:1001F00081E08093AB018BE08093A00080E48ABF14
:100200008BB780648BBF85B78C7F826085BF089574
:10021000CF93C0E4CABF9BB79F7B9BBF92988A9A3B
:10022000E0E9F1E03197F1F794988C9A8A9810926E
:10023000AC011092A7001092A80092E09093AB013D
:100240009BE09093A0008093AD0135DF8093AF01D8
:10025000CABF8BB780648BBF85B78C7F826085BF38
:10026000CF9108958091AC018823E1F30BCF0895DD
:10027000CFDFF8DF8A3F11F01092AB010895909123
:10028000A300F8949091A300911102C05D9911C050
:10029000E091B101F0E0EE54FE4F80838091B10116
:1002A0008F5F8093B1018091A3008F5F8093A30043
:1002B00001C08CB9789408951F920F920FB60F92D7
:1002C00011248F93EF93FF938091A300882389F0EB
:1002D000E091AE01F0E0EE54FE4F80818CB9809148
:1002E000A30081508093A3008091AE018F5F809323
:1002F000AE01FF91EF918F910F900FBE0F901F9065
:1003000018951F920F920FB60F9211248F939F93FF
:1003100080B391E083FB882780F989278093B0011F
:100320009093A6009F918F910F900FBE0F901F90FA
:100330001895959A14BC87E085BD08951F920F9279
:100340000FB60F92112415BC95980F900FBE0F9009
:100350001F9018958FEF8CDF85DF8A3A19F482DFC2
:10036000882319F01092AB01089588EE81DF83E0B5
:100370007FDF83EF7DDF88E27BDF84EF79CF089535
:100380008091AC018330F8F07DDE87708093B403F8
:1003900079DE2091B2033091B303280F311D87FD20
:1003A0003A953093B3032093B2036CDE2091A400FE
:1003B0003091A500281B310987FD33953093A500A6
:1003C0002093A400DDCF08951F920F920FB60F92D5
:1003D00011242F938F939F9383B3982F977020911D
:1003E0009F0021110EC080FD03C01092600009C063
:1003F00081FD02C081E003C082FD0DC082E08093D8
:100400006000973019F482E380939F0080919F00F1
:10041000815080939F009F918F912F910F900FBEDD
:100420000F901F90189586B382FB992790F981E071
:1004300089278093A2001BB888E48AB98091A20022
:10044000813011F084E801C08CE880BD83E080BD7C
:1004500080E489B980B391E083FB882780F98927FC
:100460008093B0018091B00181119093A60008950E
:10047000A0E0B0E0EDE3F2E057C1D82EE62EF42E76
:10048000C22E8091A600882329F11092A60080EC4C
:100490009AED0197F1F78091A200813071F451E655
:1004A000A52E50E0B52E6DE3962E9A0CF5018191A4
:1004B0005F01E5DE9A10FACF0DC08DE4E0DE86E73D
:1004C00092E020E931E0F9013197F1F70197D9F78E
:1004D00083E3D5DEC2FABB24B0F8ED2D0D2C000C61
:1004E000FF0BE07CFF2796E0F595E7959A95E1F7FD
:1004F0009E2F9064EE2D0E2C000CFF0BE07CFF274E
:1005000024E0F595E7952A95E1F7E92BFC2DF170AC
:10051000CF2F80E0D82F35E0CC0FDD1F3A95E1F7E3
:10052000EC2BC1FA002700F910E0C80144E0880F65
:10053000991F4A95E1F78E2BA2DE8D2D8F739FDEDA
:100540008E2D8F739CDE8091A200813041F4B29495
:1005500080EFB8228F2D8F708B2991DE0DC0B110E6
:1005600004C080919E00882339F08B2D8295880FDE
:10057000807E85DEB0929E00CDB7DEB7EBE0F0C0A6
:1005800017BA84E088BB14BA97E095BB22E221BB7E
:1005900012BA83BF12BE12BC95BD14BC13BC9BB76C
:1005A00090689BBF85BF90E89ABF19BE89B78164E8
:1005B00089BF98B910BE9EE088E10FB6F894A8955F
:1005C00081BD0FBE91BD7894089580E090E0DCD0AD
:1005D0008093A100833018F081E08093A100D0DFE8
:1005E000FFDDB8DE20DFA5DE10E0CFEFC9DE8091B1
:1005F000B001882309F45AC0D091B4036091B203CA
:100600007091B3034091A4005091A500E091A9011D
:10061000F091AA01D1130DC06115710551F4411576
:10062000510539F4309729F48091A600882309F404
:100630003EC060388FEF780734F0862F6038710540
:100640001CF08FE701C080E8681B710987FD739576
:100650007093B3036093B20340389FEF590734F0AF
:10066000642F403851051CF06FE701C060E8461B5D
:10067000510967FD53955093A5004093A400E83FAE
:100680009FEFF90734F04E2FE830F1051CF047E0FA
:1006900001C048EFE41BF10947FDF395F093AA016F
:1006A000E093A9012D2FE4DE44DE01C0D12F60913B
:1006B00060006F3F39F06093A10080E090E06CD063
:1006C000C09360008091A20081111FC08091B4038B
:1006D00083708330D1F48091A9019091AA0197FF92
:1006E0000CC08091A100882319F081508093A10053
:1006F0001092AA011092A90108C0892B31F08091B3
:10070000A1008230A8F78F5FF1CF8091AB018111FA
:1007100002C01D2F6BCFA895FCCF2F923F924F9216
:100720005F926F927F928F929F92AF92BF92CF9281
:10073000DF92EF92FF920F931F93CF93DF93CDB78A
:10074000DEB7CA1BDB0B0FB6F894DEBF0FBECDBF02
:1007500009942A88398848885F846E847D848C84D3
:100760009B84AA84B984C884DF80EE80FD800C81DC
:100770001B81AA81B981CE0FD11D0FB6F894DEBFBF
:100780000FBECDBFED010895E199FECF9FBB8EBB9B
:10079000E09A99278DB30895262FE199FECF9FBB4C
:1007A0008EBBE09A01970DB2021631F02DBB0FB649
:0E07B000F894E29AE19A0FBE0895F894FFCFF4
:1007BE00FF4D5A40000000080124252D2310101073
:1007CE00113C3C2D2F3533253C302E301026102178
:1007DE003C252D23003323322F2C2C292E2700339A
:0E07EE00253229212C002D2F35332521150908
:00000001FF
