:1000000012C066C06EC12AC084C128C027C026C0E5
:1000100025C0ADC123C022C021C043C11FC01EC026
:100020001DC01CC01BC011241FBECFE5D4E0DEBF25
:10003000CDBF10E0A0E6B0E0E4E0F8E002C005903B
:100040000D92AE39B107D9F723E0AEE9B0E001C0B7
:100050001D92A93BB207E1F7A4D2D2C3D1CF9091B0
:10006000AF01E091AA00F0E0E455FF4F808380915A
:10007000AF018F5F8093AF018091AA008F5F809363
:10008000AA000895F8948091AF01882391F0E0913F
:10009000AB00F0E0E455FF4F80819091AF019150AB
:1000A0009093AF019091AB009F5F9093AB007894D9
:1000B000089580E0FCCF982F92958927982F9695E8
:1000C00096959827892F8695892780958170089520
:1000D0001F920F920FB60F9211242F933F934F93BD
:1000E0005F936F937F938F939F93AF93BF93EF93A0
:1000F000FF938091AE01882329F18091AE01823077
:10010000E9F58091A3008230A9F0833079F0813045
:1001100051F18091B00180FF07C08C988091B001AF
:1001200086958093B00109C08C9AF8CF8091B20176
:10013000882311F08C9801C08C9A8091A300815083
:100140008093A300FF91EF91BF91AF919F918F9109
:100150007F916F915F914F913F912F910F900FBEC3
:100160000F901F901895849B03C01092AE0102C09F
:100170008093AE018CE08093A300DFCF8091A30039
:100180008230D1F08B3041F0813059F4849BEDCF37
:100190008091B00164DFEECF849BCFCF1092AE018F
:1001A000CCCF8091B00186958093B001849BC5CF60
:1001B0008091B0018068B5CF8091B0017CDF90B3B1
:1001C000929591708913EACFB8CF8A988C98109243
:1001D000AA001092AB001092AF0181E08093AE01B3
:1001E0008BE08093A30080E48ABF8BB780648BBFD1
:1001F00085B78C7F826085BF0895CF93C0E4CABF66
:100200009BB79F7B9BBF92988A9AE0E9F1E0319778
:10021000F1F794988C9A8A981092AF011092AA00E4
:100220001092AB0092E09093AE019BE09093A300FC
:100230008093B00140DF8093B201CABF8BB7806466
:100240008BBF85B78C7F826085BFCF9108958091E9
:10025000AF018823E1F316CF0895CFDFF8DF8A3F9F
:1002600011F01092AE0108959091A600F89490912B
:10027000A600911102C05D9912C0E091B401F0E0B6
:10028000EB54FE4F80838091B4018F5F8093B40163
:100290008091A6008F5F8093A600789408958CB912
:1002A000FCCF8F938FB78F93EF93FF938091A6002E
:1002B000882389F0E091B101F0E0EB54FE4F80819A
:1002C0008CB98091A60081508093A6008091B101E5
:1002D0008F5F8093B101FF91EF918F918FBF8F91CD
:1002E00018958F938FB78F939F9380B391E083FB83
:1002F000882780F989278093B3019093A9009F9163
:100300008F918FBF8F911895959A14BC87E085BD0A
:1003100008951F921FB61F92112415BC95981F9027
:100320001FBE1F9018958091AF01833008F4089587
:10033000A9DE87708093B703A5DE2091B5033091C5
:10034000B603280F311D87FD3A953093B6032093ED
:10035000B50398DE2091A7003091A800281B310931
:1003600087FD33953093A8002093A700DCCF1F9220
:100370001FB61F9211242F938F939F938DE382BFFB
:100380008091A100982F91709093B8038F5F809314
:10039000A10083B3982F97702091A200211104C06F
:1003A00080FD13C010926000973019F482E38093AF
:1003B000A2008091A20081508093A2009F918F9112
:1003C0002F911F901FBE1F90189581FD04C081E0E2
:1003D00080936000E9CF82FDF1CF82E0F9CF8F9268
:1003E0009F92BF92CF92DF92EF92FF920F931F9353
:1003F000CF93DF93C82ED62ED42FB22E8091A90092
:100400008823C1F01092A90080EC9AED0197F1F7D2
:100410008091A500813009F050C031E6832E30E094
:10042000932EF40181914F011FDFFEE98F16F0E05A
:100430009F06B9F7B2FACC27C0F9B1FAEE24E0F87A
:10044000F12C84E0EE0CFF1C8A95E1F72C2D0C2C8E
:10045000000C330B96E0359527959A95E1F7822F9E
:1004600083708E292D2D22952C70822B0B2D0170DF
:1004700010E025E0000F111F2A95E1F7802B806422
:10048000F3DE8C2D8F73F0DE8D2D8F73EDDE80917A
:10049000A500813001F58C2F8295807FDF708D2B38
:1004A000E3DEDF91CF911F910F91FF90EF90DF90EE
:1004B000CF90BF909F908F9008958DE4D5DE86E712
:1004C00092E020E931E0F9013197F1F70197D9F78E
:1004D00083E3CADEAFCF8091A0008C2B11F38C2F69
:1004E0008295880F807EC0DEC093A000DACF209175
:1004F000B7036091B5037091B6034091A700509186
:10050000A800E091AC01F091AD0180919F0028130B
:100510000CC0CA01862B972B8E2B9F2B892B29F47D
:100520008091A900811105C0089560388FEF780788
:10053000B4F1862F603871050CF08FE7681B7109E4
:1005400087FD73957093B6036093B50360E84038F8
:100550009FEF59072CF0642F403851050CF06FE7DE
:10056000461B510967FD53955093A8004093A7007F
:1005700048EFE83F9FEFF9072CF04E2FE830F105E8
:100580000CF047E0E41BF10947FDF395F093AD0152
:10059000E093AC0120939F0022DFB6CE089580E85F
:1005A000CDCFB0E0A0E0E6EDF2E000C190E080E069
:1005B0000ED1833008F0A2C08093A40017BA94E053
:1005C00098BB14BA87E085BB22E221BB12BA25E0B2
:1005D00023BF2DE322BF12BC85BD14BC13BC8BB757
:1005E00080688BBF95BF90E89ABF19BE89B78164B8
:1005F00089BF98B910BE88E19EE00FB6F894A8951F
:1006000081BD0FBE91BD7894E0DD8FEF26DE1FDE49
:100610008A3A09F475C01092AE0186B382FB88272E
:1006200080F991E089278093A5001BB888E58AB9F5
:100630008091A500813009F471C084E880BD83E019
:1006400080BD80E489B980B391E083FB882780F97D
:1006500089278093B3018091B30181119093A90000
:1006600053DEC0E0DEE01DE302E0FF24F39483E00C
:10067000E82EDD24DA948091B803882331F01092BB
:10068000B8038091B301811132DF4DDE8091B80350
:10069000882309F445C012BF1092B8038091B301BA
:1006A000811125DF609160006F3F39F06093A400F5
:1006B00090E080E094D0D09260008091A5008111FC
:1006C00016C08091B7038370833089F48091AC01A8
:1006D0009091AD0197FF55C08091A400882319F037
:1006E00081508093A4001092AD011092AC018091D2
:1006F000AE01882309F4BFCFA895BDCF81E05CCFC0
:10070000A6DD811188CF88EEA8DD83E0A6DD83EF2A
:10071000A4DD88E2A2DD84EFA0DD7FCF8CE88ECF60
:100720005F9BC0CF8CB18C3621F148F48F3371F0D0
:100730008236C1F010929E0081E296DDB3CF8337FE
:1007400051F08437B9F7F0929E00ACCF8DE48CDD88
:1007500010929E00A7CF80919E008130C9F7009330
:100760009E00A0CF80919E00823091F7E0929E0083
:1007700099CF80919E00833059F7A895FE01099486
:10078000E7CF892B09F4B3CF8091A400823008F021
:10079000AACF8F5FA6CF2F923F924F925F926F9218
:1007A0007F928F929F92AF92BF92CF92DF92EF9201
:1007B000FF920F931F93CF93DF93CDB7DEB7CA1B82
:1007C000DB0B0FB6F894DEBF0FBECDBF0994E199E5
:1007D000FECF9FBB8EBBE09A99278DB30895262F3D
:1007E000E199FECF9FBB8EBBE09A01970DB2021636
:1007F00031F02DBB0FB6F894E29AE19A0FBE08953E
:04080000F894FFCF9A
:10080400FF4D5A40000000080124252D231010102C
:10081400113C3C2D2F3533253C302E301026102131
:100824003C252D23003323322F2C2C292E27003353
:0E083400253229212C002D2F353325211509C1
:101C000011248FE594E09EBF8DBF1FBE00C020E071
:101C1000A0E6B0E001C01D92A13AB207E1F723C0EF
:101C200097FF0AC022E02BB9907890BD89B988E16E
:101C30008AB986E880BD08955998F6CF5D9BFECF9E
:101C40008CB908955F9BFECF8CB10895CF93FADFD6
:101C5000C82FF8DF2C2F30E0322F2227820F932F4E
:101C6000911DCF910895B0E0A0E0E8E3FEE0E8C068
:101C700089E190E0D5DFF8947724739455E0552EF0
:101C800061E1C62E73E0672ED0E0C0E0E9E0DE2E11
:101C900002E010E0F3E0EF2EF12CD4DF8930E8F71A
:101CA000E82FF0E0EF5BF04F0994CCDFC7DFF5CF12
:101CB00084E5C4DF83E5C2DF82E4C0DF8CE4BEDFFD
:101CC00080E0BCDF81E0BADF80E0B8DF80E0B6DF33
:101CD0008CE1B4DF80E0B2DF84E0B0DF80E0AEDF33
:101CE00080E0ACDF80E4AADF87E0A8DF83E9A6DF3D
:101CF0008EE1DCCFABDF4C01B12CA12CA7DF9C0126
:101D0000D501C40144E0880F991FAA1FBB1F4A9543
:101D1000D1F74C015901A80EB91EF40184918EDF50
:101D2000FFEF8F1A9F0AA814B904B9F7B6CF8EDF58
:101D30004C018CDF5401A80EB91EC4019AD07EDF7D
:101D40008FEF881A980AA814B904B9F7A6CFFE0134
:101D5000D0925700849172DFF801D092570084919D
:101D60006DDFF701D09257008491A0CF8091600081
:101D7000882329F0C0925700E89510926000FE0178
:101D800009958BCF63DFB0E0A0E026E0880F991FB4
:101D9000AA1FBB1F2A95D1F7FC0160925700E89556
:101DA0007CCF54DFB0E0A0E04C015D0186E0880C00
:101DB000991CAA1CBB1C8A95D1F78FB707B600FCEB
:101DC000FDCF90916000992329F0C0925700E895CB
:101DD00010926000A1E6B0E050E040E0B4019C91B8
:101DE000FA01E80DF91D11962C91119730E0322F70
:101DF0002227290F311D090170925700E8951124FF
:101E00004E5F5F4F12964034510549F7FB015092E7
:101E10005700E895709260008FBF80E047CF81E661
:101E2000A82E80E0B82E0EDFF50181935F01F1EA64
:101E3000AF16F0E0BF06B9F730CF2F923F924F9226
:101E40005F926F927F928F929F92AF92BF92CF924A
:101E5000DF92EF92FF920F931F93CF93DF93CDB753
:101E6000DEB7CA1BDB0B0FB6F894DEBF0FBECDBFCB
:101E70000994E199FECF9FBB8EBBE09A99278DB361
:101E8000089513CF15CF36CF52CF61CF6FCF7ACF12
:041E900088CFC5CF63
:0400000300001C00DD
:00000001FF
